:020000040800F2
:100000000050002031860008858400089184000893
:10001000978400089D840008A38400080000000065
:10002000000000000000000000000000C15D0008AA
:10003000A984000800000000915F0008D95F000853
:100040007986000879860008798600087986000894
:100050007986000879860008798600087986000884
:100060007986000879860008798600087986000874
:10007000798600087986000879860008B58400082A
:10008000C984000879860008798600087986000806
:100090007986000879860008798600087986000844
:1000A0007986000879860008798600087986000834
:1000B00079860008DD840008F1840008798600084C
:1000C0007986000879860008798600087986000814
:1000D00079860008058500081985000879860008DA
:1000E00079860008798600087986000800000000FB
:1000F0000000000000000000000000000000000000
:0C01000000000000000000005FF808F1A3
:1001100010B5054C237833B9044B13B10448AFF341
:1001200000800123237010BDE801002000000000C2
:10013000A0B4000808B5034B1BB103490348AFF353
:10014000008008BD00000000EC010020A0B4000801
:1001500010F8012B11F8013B012A28BF9A42F7D071
:10016000D01A7047034613F8012B002AFBD1181A46
:100170000138704781F0004102E000BF83F0004386
:1001800030B54FEA41044FEA430594EA050F08BF32
:1001900090EA020F1FBF54EA000C55EA020C7FEAF6
:1001A000645C7FEA655C00F0E2804FEA5454D4EB73
:1001B0005555B8BF6D420CDD2C4480EA020281EA3D
:1001C000030382EA000083EA010180EA020281EA75
:1001D0000303362D88BF30BD11F0004F4FEA0131C7
:1001E0004FF4801C4CEA113102D0404261EB4101D6
:1001F00013F0004F4FEA03334CEA133302D052425C
:1002000063EB430394EA050F00F0A780A4F1010417
:10021000D5F1200E0DDB02FA0EFC22FA05F2801851
:1002200041F1000103FA0EF2801843FA05F3594137
:100230000EE0A5F120050EF1200E012A03FA0EFCB6
:1002400028BF4CF0020C43FA05F3C01851EBE371E0
:1002500001F0004507D54FF0000EDCF1000C7EEBFD
:1002600000006EEB0101B1F5801F1BD3B1F5001F3B
:100270000CD349085FEA30004FEA3C0C04F101045A
:100280004FEA445212F5800F80F09A80BCF1004F83
:1002900008BF5FEA500C50F1000041EB045141EA05
:1002A000050130BD5FEA4C0C404141EB010111F406
:1002B000801FA4F10104E9D191F0000F04BF0146B1
:1002C0000020B1FA81F308BF2033A3F10B03B3F18F
:1002D00020020CDA0C3208DD02F1140CC2F10C021F
:1002E00001FA0CF021FA02F10CE002F11402D8BF7D
:1002F000C2F1200C01FA02F120FA0CFCDCBF41EA49
:100300000C019040E41AA2BF01EB0451294330BD17
:100310006FEA04041F3C1CDA0C340EDC04F11404F4
:10032000C4F1200220FA04F001FA02F340EA0300CB
:1003300021FA04F345EA030130BDC4F10C04C4F111
:10034000200220FA02F001FA04F340EA03002946F1
:1003500030BD21FA04F0294630BD94F0000F83F43B
:10036000801306BF81F480110134013D4EE77FEA1E
:10037000645C18BF7FEA655C29D094EA050F08BF6A
:1003800090EA020F05D054EA000C04BF194610464B
:1003900030BD91EA030F1EBF0021002030BD5FEA8F
:1003A000545C05D14000494128BF41F0004130BDB7
:1003B00014F580043CBF01F5801130BD01F000450B
:1003C00045F0FE4141F470014FF0000030BD7FEA7E
:1003D000645C1ABF194610467FEA655C1CBF0B4679
:1003E000024650EA013406BF52EA033591EA030F90
:1003F00041F4002130BD00BF90F0000F04BF002188
:10040000704730B54FF4806404F132044FF00005BA
:100410004FF0000150E700BF90F0000F04BF002133
:10042000704730B54FF4806404F1320410F0004599
:1004300048BF40424FF000013EE700BF42004FEA94
:10044000E2014FEA31014FEA02701FBF12F07F4311
:1004500093F07F4F81F06051704732F07F4208BFC8
:10046000704793F07F4F04BF41F40021704730B5CF
:100470004FF4607401F0004521F000411CE700BF1B
:1004800050EA010208BF704730B54FF000050AE09E
:1004900050EA010208BF704730B511F0004502D59F
:1004A000404261EB41014FF4806404F132045FEAA1
:1004B000915C3FF4D8AE4FF003025FEADC0C18BF4A
:1004C00003325FEADC0C18BF033202EBDC02C2F13C
:1004D000200300FA03FC20FA02F001FA03FE40EACE
:1004E0000E0021FA02F11444BDE600BF70B54FF0D2
:1004F000FF0C4CF4E06C1CEA11541DBF1CEA1355B0
:1005000094EA0C0F95EA0C0F00F0DEF82C4481EA17
:10051000030621EA4C5123EA4C5350EA013518BF37
:1005200052EA033541F4801143F4801338D0A0FB24
:1005300002CE4FF00005E1FB02E506F00042E0FBD1
:1005400003E54FF00006E1FB03569CF0000F18BFD7
:100550004EF0010EA4F1FF04B6F5007F64F540747F
:1005600004D25FEA4E0E6D4146EB060642EAC62112
:1005700041EA55514FEAC52040EA5E504FEACE2E7F
:10058000B4F1FD0C88BFBCF5E06F1ED8BEF1004F82
:1005900008BF5FEA500E50F1000041EB045170BDFE
:1005A00006F0004646EA010140EA020081EA030142
:1005B000B4EB5C04C2BFD4EB0C0541EA045170BD3E
:1005C00041F480114FF0000E013C00F3AB8014F1B8
:1005D000360FDEBF002001F0004170BDC4F1000401
:1005E000203C35DA0C341BDC04F11404C4F1200582
:1005F00000FA05F320FA04F001FA05F240EA0200DD
:1006000001F0004221F0004110EBD37021FA04F612
:1006100042EB06015EEA430E08BF20EAD37070BDCC
:10062000C4F10C04C4F1200500FA04F320FA05F02B
:1006300001FA04F240EA020001F0004110EBD3702D
:1006400041F100015EEA430E08BF20EAD37070BD9D
:10065000C4F1200500FA05F24EEA020E20FA04F376
:1006600001FA05F243EA020321FA04F001F0004125
:1006700021FA04F220EA020000EBD3705EEA430E96
:1006800008BF20EAD37070BD94F0000F0FD101F0C5
:100690000046400041EB010111F4801F08BF013CFE
:1006A000F7D041EA060195F0000F18BF704703F03C
:1006B0000046520043EB030313F4801F08BF013DC3
:1006C000F7D043EA0603704794EA0C0F0CEA13557F
:1006D00018BF95EA0C0F0CD050EA410618BF52EA39
:1006E0004306D1D181EA030101F000414FF000003F
:1006F00070BD50EA410606BF1046194652EA43064D
:1007000019D094EA0C0F02D150EA013613D195EAC0
:100710000C0F05D152EA03361CBF104619460AD108
:1007200081EA030101F0004141F0FE4141F4700112
:100730004FF0000070BD41F0FE4141F4780170BD02
:1007400070B54FF0FF0C4CF4E06C1CEA11541DBF67
:100750001CEA135594EA0C0F95EA0C0F00F0A7F869
:10076000A4EB050481EA030E52EA03354FEA013196
:1007700000F088804FEA03334FF0805545EA1313A9
:1007800043EA12634FEA022245EA111545EA106571
:100790004FEA00260EF000419D4208BF964244F108
:1007A000FD0404F5407402D25B084FEA3202B61A27
:1007B00065EB03055B084FEA32024FF480104FF4FB
:1007C000002CB6EB020E75EB030E22BFB61A75466F
:1007D00040EA0C005B084FEA3202B6EB020E75EB02
:1007E000030E22BFB61A754640EA5C005B084FEA6A
:1007F0003202B6EB020E75EB030E22BFB61A754637
:1008000040EA9C005B084FEA3202B6EB020E75EB41
:10081000030E22BFB61A754640EADC0055EA060E02
:1008200018D04FEA051545EA16754FEA06164FEA45
:10083000C30343EA52734FEAC2025FEA1C1CC0D1F1
:1008400011F4801F0BD141EA00014FF000004FF07E
:10085000004CB6E711F4801F04BF01430020B4F13F
:10086000FD0C88BFBCF5E06F3FF6AFAEB5EB030CF7
:1008700004BFB6EB020C5FEA500C50F1000041EBF4
:10088000045170BD0EF0004E4EEA113114EB5C04C1
:10089000C2BFD4EB0C0541EA045170BD41F4801194
:1008A0004FF0000E013C90E645EA060E8DE60CEA9C
:1008B000135594EA0C0F08BF95EA0C0F3FF43BAFB9
:1008C00094EA0C0F0AD150EA01347FF434AF95EA70
:1008D0000C0F7FF425AF104619462CE795EA0C0F54
:1008E00006D152EA03353FF4FDAE1046194622E721
:1008F00050EA410618BF52EA43067FF4C5AE50EAFB
:1009000041047FF40DAF52EA43057FF4EBAE12E7EA
:100910004FF0FF3C06E000BF4FF0010C02E000BFCB
:100920004FF0010C4DF804CD4FEA410C7FEA6C5CAE
:100930004FEA430C18BF7FEA6C5C1BD001B050EA51
:10094000410C0CBF52EA430C91EA030F02BF90EA3C
:10095000020F0020704710F1000F91EA030F58BFFB
:10096000994208BF90422CBFD8176FEAE37040F05D
:10097000010070474FEA410C7FEA6C5C02D150EAFB
:10098000013C07D14FEA430C7FEA6C5CD6D152EAB6
:10099000033CD3D05DF8040B704700BF844610467B
:1009A00062468C461946634600E000BF01B5FFF77A
:1009B000B7FF002848BF10F1000F01BD4DF808ED4A
:1009C000FFF7F4FF0CBF012000205DF808FB00BF1B
:1009D0004DF808EDFFF7EAFF34BF012000205DF875
:1009E00008FB00BF4DF808EDFFF7E0FF94BF0120C2
:1009F00000205DF808FB00BF4DF808EDFFF7CEFFC3
:100A000094BF012000205DF808FB00BF4DF808ED01
:100A1000FFF7C4FF34BF012000205DF808FB00BFD2
:100A20004FEA410C7FEA6C5C02D150EA013C0AD1EA
:100A30004FEA430C7FEA6C5C02D152EA033C02D1DC
:100A40004FF0000070474FF0010070474FEA41023D
:100A500012F5001215D211D56FF47873B3EB625210
:100A600012D94FEAC12343F0004343EA505311F037
:100A7000004F23FA02F018BF404270474FF00000C9
:100A8000704750EA013005D111F0004008BF6FF007
:100A9000004070474FF00000704700BF03685A00E5
:100AA0004CBF43F0004323F000431844704700BF9D
:100AB00061B32DE9F84F01F1FF3A90460646D14661
:100AC000002707EB090404EBD4746410E5007119E6
:100AD0000846FFF7E3FFA245834605F108003044CE
:100AE00009D0FFF7DBFFC34500F1FF3005D84045D3
:100AF00009D2671CE5E7C34505D9A74202D004F136
:100B0000FF39DEE700210846BDE8F88F0846704748
:100B1000012807D0022807D0044B00280CBF184634
:100B20000020704702487047024870470D120008C5
:100B3000111200081512000830B5264B83B0044688
:100B40008D1E4BB301A92846AFF30080F0B1019987
:100B50002A46FFF7ADFF0146C0B1FFF79FFF4B6884
:100B6000A064012B2FD0002B01F1040027DBFFF73D
:100B700095FF0023C4E913030368002B13DBFFF781
:100B80008DFF00232061184603B030BD09230022E9
:100B90001846226103B030BD0F4B10491846C91AE0
:100BA000C9100191D4E7C3F30360FFF7B1FF002838
:100BB00014BF002309232061184603B030BD012370
:100BC000C4E91303D8E7052300221846226103B0C5
:100BD00030BD00BF0000000004BE000844C1000892
:100BE000036810B5DA07044606D49B0700F14800F5
:100BF00009D500F067FC2368590709D51A070ED5F7
:100C0000DB0613D510BD00F055FC23685907F5D459
:100C100004F1D00000F05EFC23681A07F0D404F55C
:100C2000A87000F05FFC2368DB06EBD404F5E870E5
:100C3000BDE8104000F09ABC036803B103441846B5
:100C4000704700BF09207047704700BF70B5044669
:100C50000D4608E02A6C2369626121462A4601207C
:100C60009847082808D1296C2046FFF765FF0646FB
:100C70000028EFD008F0F6FD0728FBD13046296C9C
:100C8000FFF7E2FF281D00F009FC00BF2DE9F04747
:100C900005464FF0000CADF5727D03AC0E1D1746F6
:100CA0000FCE0FC40FCE0FC40FCE0FC496E80F00A7
:100CB000D5F80C80D5F8189084E80F0002ACC4F881
:100CC00000C021E0236C4FF4F0726B6121467AA8DA
:100CD00008F027FE2B697AAA294630469847889B58
:100CE000CDE900498246636431462B462A460120FD
:100CF000C0470746F8B94FF4F0727AA9204608F0C9
:100D000010FEBAF1080F1CD1216C2846FFF714FF22
:100D1000002F08BF0926074618BF0A260028D1D091
:100D2000A36B46F01001CDE900492A466364012017
:100D30002B46C04700B1092738460DF5727DBDE846
:100D4000F087BAF1070FF6D13846216CFFF77CFF28
:100D500003A800F0A3FB00BF406C70474FF0FF3CBE
:100D6000F0B5CB6BF9B00B640D1D01AC0F46064618
:100D70000FCD0FC40FCD0FC40FCD0FC495E80F00DA
:100D800084E80F00CDF800C006E033696A463146BA
:100D900098470828044608D110993046FFF7CCFE42
:100DA0000028F2D0092079B0F0BD6846FFF718FF9F
:100DB000062CF7D139463046FFF748FF30B4DD6BDB
:100DC000C160826119461D64002230BC5EE700BF2D
:100DD00070B54369C6680B64BEB903690A46044628
:100DE0000D46014602209847072807D0082803D15E
:100DF00029462046FFF72AFF08F034FD3046296CCB
:100E0000FFF722FF281D00F049FB0122FFF73EFFFC
:100E100008F028FDC2682AB110B4CC6B00220C6423
:100E200010BC33E79AE700BF704700BF836813B177
:100E30000146012018477047042907D8DFE801F070
:100E40000308060808000BB90F2A03D902207047CF
:100E50000120704700EB820042681846009B1A6030
:100E6000704700BF002310B584B003AC0A4600945D
:100E70001946FFF7E1FF039804B010BD042907D815
:100E8000DFE801F00308060808000BB90F2A03D9B0
:100E90000220704701207047009900EB8202096828
:100EA00018465160704700BF002310B584B004ACF1
:100EB00044F8042D00940A461946FFF7DFFF04B0FA
:100EC00010BD00BF4FF0FF3CF0B5D36BADF50F7D0B
:100ED0001364151D17AC07460E460FCD0FC40FCD7A
:100EE0000FC40FCD0FC495E80F0084E80F00CDF8B4
:100EF00058C012E00C2116A86A46FFF7D5FF31460C
:100F000016A8B84778B9049B16AA694608209847DE
:100F10000528044608D0092805D026996846FFF719
:100F20000BFE0028E6D0092416A8FFF759FE20463C
:100F30000DF50F7DF0BD00BF2DE9F04F0D46C96CDA
:100F400089B00C1D164600F0030B0A681F46069474
:100F5000002B68D00221130C8DF81D301204DBB277
:100F600004EB830405928DF81C102B6DBBF1020F6E
:100F700008BFAC6B13F0010346D1019300F00803E6
:100F80000093D4F80090B9F1000F00F0F380022F25
:100F900045D0B4F80090B4F802800434AB6C28F06B
:100FA000010A0F2130469A44FFF75CFF824534D88E
:100FB00029F001035344834294BF002001204FEAEB
:100FC000480808F0020809F0010948EA0908B8F1E0
:100FD000010F3AD031D3B8F1020F1AD1236823F0B0
:100FE000004ABBF1000F66D130B1009A002A6CD0E4
:100FF000BAF1000F00F09080002B00DA04340AF1FF
:10100000010304EB8304BCE7304605A900F048FB6C
:1010100078B1092009B0BDE8F08F0020CFE7D4F8FF
:1010200004800834BAE7032312020592ADF81C309D
:101030009BE7082009B0BDE8F08FBBF1000F02D09C
:10104000002840F0B48004349BE7BBF1000F18D1B6
:10105000A8B1D4E90023991C4FEAD272D9D005F186
:1010600058010133049100F0B580201DFFF7E4FD25
:1010700004AB0146284607F023FB002867D108345B
:101080007FE70D213046D5F82080FFF7EBFE804545
:10109000F5D1AB6A9C42F2D12046FFF7FFFC0F214D
:1010A00002463046FFF700FF30462A460021FFF790
:1010B000FBFE0720AEE70D213046D5F82080FFF774
:1010C000D1FE804532D0236896E7BAF1000F23D0D5
:1010D00005F1580304F10408CDF808B0DDF80090DC
:1010E000A34603971C4602E05745B94640D0404608
:1010F0000494FFF7A1FD04AB01460022284607F047
:10110000DFFA09F1010708F104080028ECD0D14505
:101110005C46DDE902B7D6D130460D21FFF7A2FECD
:10112000049B2862C5E90934062073E7AB6A9C4238
:10113000C9D104224FF00008A318C5E90AA8C5E9DF
:101140000C23236843454DDB0123019357E7804679
:101150000D213046FFF786FEB8F1020F28623ED11E
:101160002B46049A43F82C2F6B62AC62062051E7A1
:101170005C46D1E705A9304600F092FA00287FF4DA
:1011800048AF019B002B3FF454AF0F213046FFF7CF
:1011900069FE0E2102463046FFF786FE30461A4AA7
:1011A0000F21FFF781FE072009B0BDE8F08F204630
:1011B000FFF774FC04340746AC63284607F0DEFAF8
:1011C00000283FF426AF30463A460F21FFF76CFE69
:1011D00007201FE730460D21FFF744FE2862049BDD
:1011E0006B62C2E70AF1010004EB8000FFF756FCD6
:1011F0000F2102463046FFF757FE30462A46414649
:10120000FFF752FE072005E779940008002393E6D4
:10121000012391E602238FE62DE9F0410546C4B093
:10122000042906D8DFE801F04D2B05030900032B44
:101230005FD0022044B0BDE8F081002BF9D1102A24
:10124000F7D82B68DC0600F1F68022AC204601922C
:10125000012600F095F90023A86B019A06FA03F124
:10126000114203D00168043044F823100133042BE9
:10127000F4D1A863204600F079F90020DAE7012BC9
:101280004FEA124697B254D0052BD2D106EB07088D
:10129000B8F1200FCDD80F2E40F29B80B846002F1A
:1012A00040F0DD80AA6B0F2EAA6340F2C080B8F137
:1012B000000F02D002A800F00DF9002044B0BDE8F4
:1012C000F081002BB5D10127AC6B96B2281D07FA2F
:1012D00003F1314203F1010302D0216804340160BB
:1012E000102B00F10400F2D112F40050E5D1AC63F0
:1012F000A0E7160C97B2F319102B9AD82B681A078F
:101300005FD422AC204600F00FF904EBC601A86BB5
:101310004FB1034600EBC7001A680433834241F81B
:10132000042BF9D11846A863204600F0DBF8002012
:1013300080E7F219102A3FF67CAF0F2E3FF679AF07
:101340002A68D10708D5284622F0030240F8482B26
:10135000019300F0B3F8019B22AC2046019300F00A
:10136000ADF8A96B019B002F00F095804FF00008AD
:101370007A0004EBC604043C01EB820251F8040B32
:10138000914244F8040FF9D1B8F1000F0FD002AC2C
:10139000102E314638BF102104EBC101843902EB15
:1013A000C80452F8040B944241F8040FF9D1012B00
:1013B0007FF479AF22AC0432AA63204600F07AF8B9
:1013C0007BE723F008032B6005F5A87000F0ACF86C
:1013D00097E7B8F1100F2A6843D9D007A8F1100891
:1013E0000BD5284622F0010242F0020240F8482BB9
:1013F000019300F06BF82A68019B510725D40F2E4A
:1014000004D822A8019300F061F8019B02AC2046A9
:10141000019300F063F8C6F110000028AA6B019B4D
:10142000B6DD22AC114604EBC6044200A3E722A8B5
:1014300000F048F83BE723F010032B6005F5E87057
:10144000019200F09DF8019AFFE6284622F004027E
:1014500040F8D02B019300F041F8019BCFE72A68B8
:10146000CBE7D0070AD5284622F0010242F002025B
:1014700040F8482B019300F029F8019B22AC20464C
:101480000193B84600F022F8A96B019B002F7FF46E
:101490006DAF0A4607E70A468DE700BF00F1340149
:1014A00091E838009C46A6464CF8045D90E8FF0F92
:1014B000E54600BD90EC210B704700BF80EC210B8E
:1014C000704700BF90EC200B704700BF80EC200BF2
:1014D000704700BFD0EC200B704700BFC0EC200B62
:1014E000704700BFF0EC0201F0EC0211F0EC0221B9
:1014F000F0EC0231F0EC0241F0EC0251F0EC026150
:10150000F0EC0271F0EC0281F0EC0291F0EC02A13F
:10151000F0EC02B1F0EC02C1F0EC02D1F0EC02E12F
:10152000F0EC02F1704700BFE0EC0201E0EC0211C8
:10153000E0EC0221E0EC0231E0EC0241E0EC02518F
:10154000E0EC0261E0EC0271E0EC0281E0EC02917F
:10155000E0EC02A1E0EC02B1E0EC02C1E0EC02D16F
:10156000E0EC02E1E0EC02F1704700BFB0FC018169
:10157000B0FC0191B0FC01A1B0FC01B1704700BF0B
:10158000A0FC0181A0FC0191A0FC01A1A0FC01B183
:10159000704700BFEC4600B52DE900502DE9FF1F54
:1015A0004FF000032DE90C0001A9FFF7D7FBDDF890
:1015B00040E012B0704700BFEC4600B52DE9005086
:1015C0002DE9FF1F4FF000032DE90C0001A9FFF7E3
:1015D000FFFBDDF840E012B0704700BFEC4600B5FD
:1015E0002DE900502DE9FF1F4FF000032DE90C00FD
:1015F00001A9FFF70FFCDDF840E012B0704700BF13
:10160000EC4600B52DE900502DE9FF1F4FF0000317
:101610002DE90C0001ABFFF7D1FBDDF840E012B083
:10162000704700BFEC4600B52DE900502DE9FF1FC3
:101630004FF000032DE90C0001AAFFF743FCDDF891
:1016400040E012B0704700BF027A7AB9437AA3B182
:1016500003214268013B10B443721368141D0172E8
:101660001A024460026010BC180E70470368013A09
:1016700002721A020260180E7047B020704700BF55
:10168000002300B585B003AA009219460C22FFF78B
:10169000D3FB039805B05DF804FB00BFF0E700BF83
:1016A0002DE9F04305460E464FF0000885B0304660
:1016B000FFF7CAFFB028044600F0B080070620D527
:1016C00000F0F003802B65D0902B36D0A02B78D083
:1016D000B02B47D0C02B00F0898000F0F803D02B4E
:1016E0000BD100F00702013242F400220523012150
:1016F0002846FFF791FD0028D9D0092005B0BDE8A4
:10170000F08300230DF10C0919468700CDF80090F5
:101710000D222846FFF790FBFFB2039B04376006BB
:101720004CBFDF1BFF180023CDF8009019460D2297
:1017300028460397FFF7A2FBB9E700F00D030D2B36
:10174000DBD0002303AF00F00F02194600972846B4
:10175000FFF772FB0023009719460D222846FFF77A
:101760008DFBA4E7B1285ED0B22800F0CB80B3286F
:101770007DD000F0FC03B42BBFD0012300F00702A2
:101780001A4442F4002219462846FFF745FD002876
:101790008DD0B2E73046FFF757FF24020443B4F57B
:1017A000004FAAD000232401A2B219462846FFF711
:1017B00033FD0028A1D114F4004F18BF4FF00108E9
:1017C00075E7C3434FF47F6203F007031A41002318
:1017D000010702F47F6248BF42F48042194628465E
:1017E000FFF71AFD00283FF462AF86E7C62851D004
:1017F000C7285AD000F0F803C02B69D0C82875D08C
:10180000C9287FF47AAF3046FFF71EFF020300F0CD
:101810000F0002F470220130024367E7B8F1000FB5
:1018200014D000206AE73046FFF70EFF00283FF48F
:1018300064AF10F0F0037FF460AF0246194628460B
:10184000FFF7EAFC00283FF432AF56E703AC43460B
:101850000E22414600942846FFF7EEFA00942846EF
:1018600043460F224146FFF709FB404646E7304614
:10187000FFF7EAFE0123010300F00F0001F47021DD
:10188000C2180A4328461946FFF7C6FC00283FF451
:101890000EAF32E73046FFF7D7FE010300F00F002E
:1018A000032301F47021421CEBE73046FFF7CCFE26
:1018B000024600283FF421AF10F0F0037FF41DAF83
:1018C00004212846FFF7A8FC00283FF4F0AE14E7F7
:1018D000032300F00F02013242F420221946284669
:1018E000FFF79AFC00283FF4E2AE06E73046FFF728
:1018F000ABFE00F0F00200F00F031032013343EAB8
:101900000232F3E600230DF10C090D221946CDF841
:1019100000902846FFF790FA3046FFF795FE020642
:101920004FF002070CD5039B00F07F00B840034442
:1019300030460393FFF788FE030607F10707F2D44A
:101940000023039A00F07F04BC4002F501721444A6
:10195000CDF8009019460D2228460394FFF78EFA21
:10196000A5E600BF30B503240D46C36C85B05A68A8
:101970008DF80C40DC791202083301A92846019247
:101980008DF80D400293FFF78BFE05B030BD00BF10
:1019900008B5FFF783FE806C08BD00BF08B5FFF7F0
:1019A0007DFEC06CC37900EB8300083008BD00BF2A
:1019B00008B507F057FF00BF08B5FFF7F9FF00BFF4
:1019C00080B500AF084B1B68074A43F01003136053
:1019D000032000F0D1F8002006F0FCFC06F0B4FB78
:1019E0000023184680BD00BF0020024080B400AF35
:1019F000054B1B781A46054B1B681344034A1360BA
:101A000000BFBD4680BC704704000020CC10002001
:101A100080B400AF024B1B681846BD4680BC7047BF
:101A2000CC10002080B485B000AF78607B6803F0F4
:101A30000703FB600C4BDB68BB60BA684FF6FF0323
:101A40001340BB60FB681A02BB68134343F0BF63DB
:101A500043F40033BB60044ABB68D36000BF143753
:101A6000BD4680BC704700BF00ED00E080B400AF11
:101A7000044BDB681B0A03F007031846BD4680BC15
:101A8000704700BF00ED00E080B483B000AF0346B4
:101A9000FB7197F90730002B0BDBFB7903F01F027A
:101AA000064997F907305B09012000FA02F241F874
:101AB000232000BF0C37BD4680BC704700E100E02A
:101AC00080B483B000AF03463960FB7197F90730EB
:101AD000002B0ADB3B68DAB20C4997F90730120198
:101AE000D2B20B4483F800230AE03B68DAB208491B
:101AF000FB7903F00F03043B1201D2B20B441A76B8
:101B000000BF0C37BD4680BC704700BF00E100E05D
:101B100000ED00E080B489B000AFF860B9607A6091
:101B2000FB6803F00703FB61FB69C3F10703042BA8
:101B300028BF0423BB61FB690433062B02D9FB6970
:101B4000033B00E000237B614FF0FF32BB6902FAE8
:101B500003F3DA43BB681A407B699A404FF0FF31C8
:101B60007B6901FA03F3D9437B680B4013431846A2
:101B70002437BD4680BC704780B582B000AF786026
:101B80007868FFF74FFF00BF0837BD4680BD80B5BE
:101B900086B000AF0346B9607A60FB7300237B61B7
:101BA000FFF764FF78617A68B9687869FFF7B2FF78
:101BB000024697F90F3011461846FFF781FF00BF24
:101BC0001837BD4680BD80B582B000AF0346FB71BB
:101BD00097F907301846FFF757FF00BF0837BD4693
:101BE00080BD000080B485B000AF78600023FB604A
:101BF0007B68002B01D1012343E07B681B681A46F8
:101C0000224B1344224AA2FB03231B099A007B6840
:101C10001A647B681F4ADA637B68022283F82120FA
:101C20007B681B681B68FB60FB6823F47F5323F011
:101C30003003FB607B685A687B689B681A437B684B
:101C4000DB681A437B681B691A437B685B691A432C
:101C50007B689B691A437B68DB691343FA6813430B
:101C6000FB607B681B68FA681A607B6800229A63D5
:101C70007B68012283F821207B68002283F82020E2
:101C8000002318461437BD4680BC7047F8FFFDBFDF
:101C9000CDCCCCCC0000024080B586B000AFF8605F
:101CA000B9607A603B600023FB75FB6893F82030D5
:101CB000012B01D102234AE0FB68012283F8202096
:101CC000FB6893F82130012B3AD1FB68022283F89C
:101CD0002120FB6800229A63FB681B681A68FB6876
:101CE0001B6822F001021A603B687A68B968F868DC
:101CF00000F0AEF9FB68DB6A002B08D0FB681B68BC
:101D00001A68FB681B6842F00E021A600FE0FB685D
:101D10001B681A68FB681B6822F004021A60FB68E3
:101D20001B681A68FB681B6842F00A021A60FB68AD
:101D30001B681A68FB681B6842F001021A6005E024
:101D4000FB68002283F820200223FB75FB7D1846E8
:101D50001837BD4680BD000080B584B000AF786004
:101D60000023FB737B6893F82130022B05D07B683E
:101D700004229A630123FB7351E07B681B681A6895
:101D80007B681B6822F00E021A607B681B681A6869
:101D90007B681B6822F001021A607B681B68224A7C
:101DA000934229D07B681B68204A934222D07B68EB
:101DB0001B681F4A93421AD07B681B681D4A9342D6
:101DC00012D07B681B681C4A93420AD07B681B6850
:101DD0001A4A934202D14FF480130EE04FF0807301
:101DE0000BE04FF4803308E04FF4805305E04FF4EC
:101DF000807302E0102300E00123114A53607B68E6
:101E0000012283F821207B68002283F820207B6850
:101E10005B6B002B03D07B685B6B78689847FB7B20
:101E200018461037BD4680BD080002401C00024025
:101E30003000024044000240580002406C00024062
:101E40000000024080B584B000AF78607B68DB6B37
:101E50001B68FB607B681B681B68BB607B681B6C36
:101E600004229A40FB681340002B4FD0BB6803F05C
:101E70000403002B4AD07B681B681B6803F0200317
:101E8000002B07D17B681B681A687B681B6822F0EF
:101E900004021A607B681B68664A934229D07B68FB
:101EA0001B68654A934222D07B681B68634A934251
:101EB0001AD07B681B68624A934212D07B681B6809
:101EC000604A93420AD07B681B685F4A934202D102
:101ED0004FF480030EE04FF080630BE04FF480235B
:101EE00008E04FF4804305E04FF4806302E04023B4
:101EF00000E00423554A53607B68DB6A002B00F046
:101F000094807B68DB6A786898478EE07B681B6CFE
:101F100002229A40FB681340002B56D0BB6803F0A6
:101F20000203002B51D07B681B681B6803F0200361
:101F3000002B0BD17B681B681A687B681B6822F03A
:101F40000A021A607B68012283F821207B681B68E3
:101F5000384A934229D07B681B68374A934222D083
:101F60007B681B68354A93421AD07B681B68344AE9
:101F7000934212D07B681B68324A93420AD07B6836
:101F80001B68314A934202D14FF400130EE04FF028
:101F900000730BE04FF4003308E04FF4005305E00A
:101FA0004FF4007302E0202300E00223274A53602D
:101FB0007B68002283F820207B689B6A002B34D04A
:101FC0007B689B6A786898472FE07B681B6C0822C7
:101FD0009A40FB681340002B28D0BB6803F008032D
:101FE000002B23D07B681B681A687B681B6822F073
:101FF0000E021A607B681A6C7B68DB6B012101FAA8
:1020000002F25A607B6801229A637B68012283F89E
:1020100021207B68002283F820207B681B6B002B2B
:1020200004D07B681B6B7868984700BF00BF1037EF
:10203000BD4680BD080002401C0002403000024046
:1020400044000240580002406C0002400000024080
:1020500080B485B000AFF860B9607A603B60FB681F
:102060001A6CFB68DB6B012101FA02F25A60FB6813
:102070001B683A685A60FB685B68102B08D1FB68E4
:102080001B687A689A60FB681B68BA68DA6007E0C8
:10209000FB681B68BA689A60FB681B687A68DA603C
:1020A00000BF1437BD4680BC7047000080B48BB0C1
:1020B00000AF7860396000237B6200233B6227E138
:1020C00001227B6A02FA03F3FB613B681B68FA6931
:1020D0001340BB61BA69FB699A4240F016813B68C4
:1020E0005B68122B34D0122B0DD8022B2BD0022B75
:1020F00004D8002B31D0012B1CD048E0032B43D057
:10210000112B1BD043E0894A934226D0874A934241
:1021100006D8874A934220D0864A93421DD036E0A3
:10212000854A934219D0854A934216D0844A9342F5
:1021300013D02CE03B68DB683B6228E03B68DB683F
:1021400004333B6223E03B68DB6808333B621EE0FC
:102150003B68DB680C333B6219E03B689B68002BF3
:1021600002D104233B6212E03B689B68012B05D13E
:1021700008233B627B68FA691A6108E008233B6226
:102180007B68FA695A6102E000233B6200BFBB69C9
:10219000FF2B01D87B6801E07B6804337B61BB695E
:1021A000FF2B02D87B6A9B0002E07B6A083B9B0006
:1021B0003B617B691A680F213B6901FA03F3DB433A
:1021C0001A40396A3B6901FA03F31A437B691A60C2
:1021D0003B685B6803F08053002B00F09680594BFE
:1021E0009B69584A43F001039361564B9B6903F086
:1021F0000103BB60BB68544A7B6A9B08023352F8F8
:102200002330FB607B6A03F003039B000F2202FA7A
:1022100003F3DB43FA681340FB607B684B4A93424D
:1022200013D07B684A4A93420DD07B68494A934257
:1022300007D07B68484A934201D1032306E0042378
:1022400004E0022302E0012300E000237A6A02F0A6
:10225000030292009340FA681343FB603A497B6A99
:102260009B080233FA6841F823203B685B6803F45B
:102270008033002B06D0394B1A683849BB691343A9
:102280000B6006E0354B1A68BB69DB4333491340EA
:102290000B603B685B6803F40033002B06D02F4BC8
:1022A0005A682E49BB6913434B6006E02B4B5A68B2
:1022B000BB69DB43294913404B603B685B6803F40F
:1022C0008013002B06D0254B9A682449BB69134321
:1022D0008B6006E0214B9A68BB69DB431F491340C2
:1022E0008B603B685B6803F40013002B06D01B4B2C
:1022F000DA681A49BB691343CB6006E0174BDA680A
:10230000BB69DB4315491340CB607B6A01337B62B9
:102310003B681A687B6A22FA03F3002B7FF4D0AE85
:1023200000BF2C37BD4680BC704700BF00002110A5
:1023300000001110000012100000311000003210D7
:10234000000022100010024000000140000801407F
:10235000000C014000100140001401400004014045
:1023600080B586B000AF78607B68002B01D1012377
:102370006CE27B681B6803F00103002B00F0878090
:10238000924B5B6803F00C03042B0CD08F4B5B6803
:1023900003F00C03082B12D18C4B5B6803F48033E1
:1023A000B3F5803F0BD1894B1B6803F40033002B3E
:1023B0006CD07B685B68002B68D1012346E27B68A8
:1023C0005B68B3F5803F06D1804B1B687F4A43F4BE
:1023D000803313602EE07B685B68002B0CD17B4B55
:1023E0001B687A4A23F480331360784B1B68774A62
:1023F00023F4802313601DE07B685B68B3F5A02F96
:102400000CD1724B1B68714A43F4802313606F4BED
:102410001B686E4A43F4803313600BE06B4B1B6800
:102420006A4A23F480331360684B1B68674A23F4BD
:10243000802313607B685B68002B13D0FFF7E8FAFA
:10244000386108E0FFF7E4FA02463B69D31A642BCF
:1024500001D90323FAE15D4B1B6803F40033002B21
:10246000F0D014E0FFF7D4FA386108E0FFF7D0FAB3
:1024700002463B69D31A642B01D90323E6E1534B8F
:102480001B6803F40033002BF0D100E000BF7B6831
:102490001B6803F00203002B63D04C4B5B6803F016
:1024A0000C03002B0BD0494B5B6803F00C03082B8B
:1024B0001CD1464B5B6803F48033002B16D1434B91
:1024C0001B6803F00203002B05D07B681B69012BFE
:1024D00001D00123BAE13D4B1B6823F0F8027B6871
:1024E0005B69DB00394913430B603AE07B681B6989
:1024F000002B20D0364B01221A60FFF789FA386191
:1025000008E0FFF785FA02463B69D31A022B01D98E
:1025100003239BE12D4B1B6803F00203002BF0D03B
:102520002A4B1B6823F0F8027B685B69DB002749B4
:1025300013430B6015E0264B00221A60FFF768FA80
:10254000386108E0FFF764FA02463B69D31A022BB0
:1025500001D903237AE11D4B1B6803F00203002B12
:10256000F0D17B681B6803F00803002B3AD07B682E
:102570009B69002B19D0174B01221A60FFF748FA0C
:10258000386108E0FFF744FA02463B69D31A022B90
:1025900001D903235AE10D4B5B6A03F00203002BC0
:1025A000F0D0012000F00AFB1CE00A4B00221A6068
:1025B000FFF72EFA38610FE0FFF72AFA02463B696F
:1025C000D31A022B08D9032340E100BF00100240B8
:1025D00000004242800442429E4B5B6A03F00203C9
:1025E000002BE9D17B681B6803F00403002B00F08B
:1025F000A6800023FB75974BDB6903F08053002B0B
:102600000DD1944BDB69934A43F08053D361914BD6
:10261000DB6903F08053BB60BB680123FB758E4B05
:102620001B6803F48073002B18D18B4B1B688A4AFC
:1026300043F480731360FFF7EBF9386108E0FFF7AC
:10264000E7F902463B69D31A642B01D90323FDE065
:10265000814B1B6803F48073002BF0D07B68DB6830
:10266000012B06D17B4B1B6A7A4A43F001031362AC
:102670002DE07B68DB68002B0CD1764B1B6A754A1A
:1026800023F001031362734B1B6A724A23F00403A5
:1026900013621CE07B68DB68052B0CD16D4B1B6A59
:1026A0006C4A43F0040313626A4B1B6A694A43F0A5
:1026B000010313620BE0674B1B6A664A23F00103B8
:1026C0001362644B1B6A634A23F0040313627B6842
:1026D000DB68002B15D0FFF79BF938610AE0FFF7A4
:1026E00097F902463B69D31A41F28832934201D9E5
:1026F0000323ABE0574B1B6A03F00203002BEED021
:1027000014E0FFF785F938610AE0FFF781F9024626
:102710003B69D31A41F28832934201D9032395E0F1
:102720004C4B1B6A03F00203002BEED1FB7D012B07
:1027300005D1484BDB69474A23F08053D3617B685E
:10274000DB69002B00F08180424B5B6803F00C03D7
:10275000082B61D07B68DB69022B46D13F4B0022FE
:102760001A60FFF755F9386108E0FFF751F90246A2
:102770003B69D31A022B01D9032367E0354B1B6851
:1027800003F00073002BF0D17B681B6AB3F5803F28
:1027900008D1304B5B6823F400327B689B682D497D
:1027A00013434B602B4B5B6823F474127B68196AEC
:1027B0007B685B6A0B43274913434B60274B01221D
:1027C0001A60FFF725F9386108E0FFF721F90246A2
:1027D0003B69D31A022B01D9032337E01D4B1B6839
:1027E00003F00073002BF0D02FE01C4B00221A6086
:1027F000FFF70EF9386108E0FFF70AF902463B6976
:10280000D31A022B01D9032320E0124B1B6803F0DB
:102810000073002BF0D118E07B68DB69012B01D13C
:10282000012313E00B4B5B68FB60FB6803F4803211
:102830007B681B6A9A4206D1FB6803F470127B68BE
:102840005B6A9A4201D0012300E000231846183742
:10285000BD4680BD00100240007000406000424252
:1028600080B584B000AF786039607B68002B01D1FF
:102870000123D0E06A4B1B6803F007033A689A42D1
:1028800010D9674B1B6823F0070265493B68134367
:102890000B60634B1B6803F007033A689A4201D050
:1028A0000123B8E07B681B6803F00203002B20D0F3
:1028B0007B681B6803F00403002B05D0594B5B6851
:1028C000584A43F4E06353607B681B6803F00803D5
:1028D000002B05D0534B5B68524A43F4605353605E
:1028E000504B5B6823F0F0027B689B684D491343B3
:1028F0004B607B681B6803F00103002B40D07B68B2
:102900005B68012B07D1474B1B6803F40033002B96
:1029100015D101237FE07B685B68022B07D1414B17
:102920001B6803F00073002B09D1012373E03D4BBA
:102930001B6803F00203002B01D101236BE0394B2C
:102940005B6823F003027B685B68364913434B6086
:10295000FFF75EF8F8600AE0FFF75AF80246FB68F6
:10296000D31A41F28832934201D9032353E02D4B0D
:102970005B6803F00C027B685B689B009A42EBD1BA
:10298000274B1B6803F007033A689A4210D2244B86
:102990001B6823F0070222493B6813430B60204B5E
:1029A0001B6803F007033A689A4201D0012332E022
:1029B0007B681B6803F00403002B08D0194B5B688D
:1029C00023F4E0627B68DB68164913434B607B6845
:1029D0001B6803F00803002B09D0124B5B6823F43B
:1029E00060527B681B69DB000E4913434B6000F0AB
:1029F00021F801460B4B5B681B0903F00F030A4AE1
:102A0000D35C21FA03F3094A1360094B1B6818468B
:102A100005F0E0FC002318461037BD4680BD00BF1E
:102A20000020024000100240F8B500080C00002011
:102A30000000002090B48AB000AF2A4B3C1D0FCBA1
:102A400084E80F00284B1B883B800023FB61002398
:102A5000BB6100237B6200237B6100233B62234B2D
:102A60005B68FB61FB6903F00C03042B02D0082BAD
:102A700003D02DE01E4B3B622DE0FB699B0C03F065
:102A80000F0307F12802134413F8243C7B61FB6910
:102A900003F48033002B13D0144B5B685B0C03F002
:102AA000010307F12802134413F8283CBB617B693A
:102AB0000F4A02FB03F2BB69B2FBF3F37B6204E053
:102AC0007B690C4A02FB03F37B627B6A3B6202E098
:102AD000074B3B6200BF3B6A18462837BD4690BC97
:102AE000704700BFB8B40008C8B400080010024026
:102AF00000127A0000093D0080B400AF024B1B6851
:102B00001846BD4680BC70470C00002080B500AF61
:102B1000FFF7F2FF0146054B5B681B0A03F0070352
:102B2000034AD35C21FA03F3184680BD001002402B
:102B300008B6000880B500AFFFF7DEFF0146054B81
:102B40005B68DB0A03F00703034AD35C21FA03F353
:102B5000184680BD0010024008B6000880B483B05B
:102B600000AF786039607B680F221A60114B5B6898
:102B700003F003027B685A600E4B5B6803F0F002BF
:102B80007B689A600B4B5B6803F4E0627B68DA60F9
:102B9000084B5B68DB0803F4E0627B681A61064B54
:102BA0001B6803F007023B681A6000BF0C37BD4684
:102BB00080BC7047001002400020024080B485B005
:102BC00000AF78600A4B1B680A4AA2FB03235B0A2A
:102BD0007A6802FB03F3FB6000BFFB685A1EFA60D1
:102BE000002BF9D100BF1437BD4680BC704700BF31
:102BF0000C000020D34D621080B582B000AF786029
:102C00007B68002B01D101231DE07B6893F83D30E8
:102C1000DBB2002B06D17B68002283F83C20786869
:102C200005F0CAFA7B68022283F83D207B681A68A7
:102C30007B6804331946104600F010FA7B680122C5
:102C400083F83D20002318460837BD4680BD80B478
:102C500085B000AF78607B681B68DA687B681B68AA
:102C600042F00102DA607B681B689B6803F007038F
:102C7000FB60FB68062B07D07B681B681A687B68C3
:102C80001B6842F001021A60002318461437BD4643
:102C900080BC704780B582B000AF78607B681B68ED
:102CA0001B6903F00203022B22D17B681B68DB68DF
:102CB00003F00203022B1BD17B681B686FF002023A
:102CC0001A617B6801221A777B681B689B6903F095
:102CD0000303002B03D0786800F0A4F905E07868BE
:102CE00000F097F9786800F0A6F97B6800221A775F
:102CF0007B681B681B6903F00403042B22D17B68EB
:102D00001B68DB6803F00403042B1BD17B681B6882
:102D10006FF004021A617B6802221A777B681B68D5
:102D20009B6903F44073002B03D0786800F07AF9B4
:102D300005E0786800F06DF9786800F07CF97B6850
:102D400000221A777B681B681B6903F00803082BB5
:102D500022D17B681B68DB6803F00803082B1BD1BA
:102D60007B681B686FF008021A617B6804221A777F
:102D70007B681B68DB6903F00303002B03D07868D2
:102D800000F050F905E0786800F043F9786800F049
:102D900052F97B6800221A777B681B681B6903F075
:102DA0001003102B22D17B681B68DB6803F0100333
:102DB000102B1BD17B681B686FF010021A617B68B7
:102DC00008221A777B681B68DB6903F44073002BC9
:102DD00003D0786800F026F905E0786800F019F96A
:102DE000786800F028F97B6800221A777B681B68F6
:102DF0001B6903F00103012B0ED17B681B68DB68A4
:102E000003F00103012B07D17B681B686FF00102FF
:102E10001A61786804F0CCFF7B681B681B6903F0BB
:102E20008003802B0ED17B681B68DB6803F0800376
:102E3000802B07D17B681B686FF080021A6178686D
:102E400000F051FA7B681B681B6903F04003402BBC
:102E50000ED17B681B68DB6803F04003402B07D171
:102E60007B681B686FF040021A61786800F0ECF82C
:102E70007B681B681B6903F02003202B0ED17B6845
:102E80001B68DB6803F02003202B07D17B681B68DD
:102E90006FF020021A61786800F01CFA00BF083752
:102EA000BD4680BD80B584B000AF786039607B6876
:102EB00093F83C30012B01D10223A6E07B6801226C
:102EC00083F83C207B68022283F83D207B681B68E6
:102ED0009B68FB60FB6823F07703FB60FB6823F4CF
:102EE0007F43FB607B681B68FA689A603B681B68DD
:102EF000402B67D0402B0BD8102B73D0102B02D84F
:102F0000002B6FD078E0202B6CD0302B6AD073E090
:102F1000702B0DD0702B04D8502B33D0602B41D0A8
:102F20006AE0B3F5805F66D0B3F5005F17D063E069
:102F30007B6818683B6899683B685A683B68DB683F
:102F400000F065F97B681B689B68FB60FB6843F0D9
:102F50007703FB607B681B68FA689A604CE07B68CB
:102F600018683B6899683B685A683B68DB6800F002
:102F70004EF97B681B689A687B681B6842F4804244
:102F80009A6039E07B6818683B6859683B68DB6881
:102F90001A4600F0C5F87B681B685021184600F0FF
:102FA0001CF929E07B6818683B6859683B68DB6856
:102FB0001A4600F0E3F87B681B686021184600F0B1
:102FC0000CF919E07B6818683B6859683B68DB6856
:102FD0001A4600F0A5F87B681B684021184600F0EF
:102FE000FCF809E07B681A683B681B6819461046C4
:102FF00000F0F3F800E000BF7B68012283F83D2079
:103000007B68002283F83C20002318461037BD4619
:1030100080BD80B483B000AF786000BF0C37BD4680
:1030200080BC704780B483B000AF786000BF0C37BD
:10303000BD4680BC704780B483B000AF786000BFED
:103040000C37BD4680BC704780B483B000AF786059
:1030500000BF0C37BD4680BC7047000080B485B00F
:1030600000AF786039607B681B68FB607B68294A29
:1030700093420BD07B68B3F1804F07D07B68264A20
:10308000934203D07B68254A934208D1FB6823F022
:103090007003FB603B685B68FA681343FB607B6806
:1030A0001C4A93420BD07B68B3F1804F07D07B68FA
:1030B000194A934203D07B68184A934208D1FB68AF
:1030C00023F44073FB603B68DB68FA681343FB60E2
:1030D000FB6823F080023B685B691343FB607B68FD
:1030E000FA681A603B689A687B68DA623B681A681B
:1030F0007B689A627B68074A934203D13B681A69EE
:103100007B681A637B6801225A6100BF1437BD4691
:1031100080BC7047002C01400004004000080040C3
:1031200080B487B000AFF860B9607A60FB681B6A52
:103130007B61FB681B6A23F00102FB681A62FB6873
:103140009B693B613B6923F0F0033B617B681B019A
:103150003A6913433B617B6923F00A037B617A6917
:10316000BB6813437B61FB683A699A61FB687A69C3
:103170001A6200BF1C37BD4680BC704780B487B060
:1031800000AFF860B9607A60FB681B6A23F0100238
:10319000FB681A62FB689B697B61FB681B6A3B6189
:1031A0007B6923F470437B617B681B037A6913435B
:1031B0007B613B6923F0A0033B61BB681B013A695B
:1031C00013433B61FB687A699A61FB683A691A624A
:1031D00000BF1C37BD4680BC704780B485B000AFCF
:1031E000786039607B689B68FB60FB6823F0700344
:1031F000FB603A68FB68134343F00703FB607B689E
:10320000FA689A6000BF1437BD4680BC704780B42E
:1032100087B000AFF860B9607A603B60FB689B687C
:103220007B617B6923F47F437B613B681A027B6887
:103230001A43BB6813437A6913437B61FB687A695D
:103240009A6000BF1C37BD4680BC704780B485B013
:1032500000AF786039607B6893F83C30012B01D176
:10326000022332E07B68012283F83C207B68022243
:1032700083F83D207B681B685B68FB607B681B688C
:103280009B68BB60FB6823F07003FB603B681B68B6
:10329000FA681343FB60BB6823F08003BB603B68A4
:1032A0005B68BA681343BB607B681B68FA685A6046
:1032B0007B681B68BA689A607B68012283F83D20AE
:1032C0007B68002283F83C20002318461437BD4653
:1032D00080BC704780B483B000AF786000BF0C370B
:1032E000BD4680BC704780B483B000AF786000BF3B
:1032F0000C37BD4680BC704780B582B000AF7860A7
:103300007B68002B01D101233FE07B6893F83930C3
:10331000DBB2002B06D17B68002283F83820786866
:1033200004F070FF7B68242283F839207B681B68D7
:10333000DA687B681B6822F40052DA60786800F073
:1033400043FE7B681B681A697B681B6822F4904205
:103350001A617B681B685A697B681B6822F02A0225
:103360005A617B681B68DA687B681B6842F400520C
:10337000DA607B680022DA637B68202283F83920D8
:103380007B68202283F83A20002318460837BD4680
:1033900080BD80B588B002AFF860B9603B6013466D
:1033A000FB8000237B61FB6893F83930DBB2202B74
:1033B00040F08380BB68002B02D0FB88002B01D13A
:1033C00001237BE0FB6893F83830012B01D1022305
:1033D00074E0FB68012283F83820FB680022DA637E
:1033E000FB68212283F83920FEF712FB7861FB6825
:1033F000FA889A84FB68FA88DA8442E0FB68DB8CFE
:103400009BB2013B9AB2FB68DA84FB689B68B3F518
:10341000805F22D13B6800937B6900228021F8689D
:1034200000F054FC0346002B01D0032346E0BB68A8
:103430003B613B691B881A46FB681B68C2F30802A4
:103440005A60FB681B69002B03D1BB680233BB6069
:1034500017E0BB680133BB6013E03B6800937B69F6
:1034600000228021F86800F031FC0346002B01D0D7
:10347000032323E0BB685A1CBA601A78FB681B68F8
:103480005A60FB68DB8C9BB2002BB7D13B68009382
:103490007B6900224021F86800F018FC0346002BED
:1034A00001D003230AE0FB68202283F83920FB685F
:1034B000002283F83820002300E002231846183742
:1034C000BD4680BD80B588B002AFF860B9603B6092
:1034D0001346FB8000237B61FB6893F83A30DBB234
:1034E000202B40F09080BB68002B02D0FB88002B83
:1034F00001D1012388E0FB6893F83830012B01D11A
:10350000022381E0FB68012283F83820FB68002257
:10351000DA63FB68222283F83A20FEF779FA7861B1
:10352000FB68FA889A85FB68FA88DA855CE0FB68B4
:10353000DB8D9BB2013B9AB2FB68DA85FB689B6826
:10354000B3F5805F2BD13B6800937B69002220217B
:10355000F86800F0BBFB0346002B01D0032353E0C7
:10356000BB683B61FB681B69002B0CD1FB681B68C7
:103570005B689BB2C3F308039AB23B691A80BB68CD
:103580000233BB6030E0FB681B685B689BB2DBB258
:103590009AB23B691A80BB680133BB6024E03B6888
:1035A00000937B6900222021F86800F08FFB03461E
:1035B000002B01D0032327E0FB681B69002B08D1F7
:1035C000FB681B685968BB685A1CBA60CAB21A709B
:1035D0000AE0FB681B685B68DAB2BB68591CB9601B
:1035E00002F07F02D2B21A70FB68DB8D9BB2002B17
:1035F0009DD1FB68202283F83A20FB68002283F8E3
:103600003820002300E0022318461837BD4680BD4D
:1036100080B485B000AFF860B9601346FB80FB68EA
:1036200093F83930DBB2202B30D1BB68002B02D0AD
:10363000FB88002B01D1012329E0FB6893F8383087
:10364000012B01D1022322E0FB68012283F83820FC
:10365000FB68BA681A62FB68FA889A84FB68FA8881
:10366000DA84FB680022DA63FB68212283F83920C0
:10367000FB68002283F83820FB681B68DA68FB6867
:103680001B6842F08002DA60002300E00223184643
:103690001437BD4680BC704780B485B000AFF86079
:1036A000B9601346FB80FB6893F83A30DBB2202BFD
:1036B00040D1BB68002B02D0FB88002B01D1012335
:1036C00039E0FB6893F83830012B01D1022332E056
:1036D000FB68012283F83820FB68BA689A62FB68AD
:1036E000FA889A85FB68FA88DA85FB680022DA6333
:1036F000FB68222283F83A20FB68002283F83820F6
:10370000FB681B68DA68FB681B6842F48072DA6049
:10371000FB681B685A69FB681B6842F001025A612A
:10372000FB681B68DA68FB681B6842F02002DA60FD
:10373000002300E0022318461437BD4680BC7047C2
:1037400080B586B000AFF860B9601346FB80FB68B7
:1037500093F83930DBB2202B53D1BB68002B02D059
:10376000FB88002B01D101234CE0FB6893F8383033
:10377000012B01D1022345E0FB68012283F83820A8
:10378000BA68FB681A62FB68FA889A84FB68FA8850
:10379000DA84FB680022DA63FB68212283F839208F
:1037A000FB681B6B194A9A62FB681B6B184ADA624A
:1037B000FB681B6B174A1A63FB681B6B00225A637A
:1037C00007F108037B61FB68186B7B691968FB686C
:1037D0001B6804331A46FB88FEF75EFAFB681B6819
:1037E0006FF040021A60FB68002283F83820FB6803
:1037F0001B685A69FB681B6842F080025A6100230B
:1038000000E0022318461837BD4680BD473B00083C
:10381000993B0008393C000880B586B000AFF860DD
:10382000B9601346FB80FB6893F83A30DBB2202B7B
:1038300066D1BB68002B02D0FB88002B01D101238D
:103840005FE0FB6893F83830012B01D1022358E088
:10385000FB68012283F83820BA68FB689A62FB682B
:10386000FA889A85FB680022DA63FB68222283F8D3
:103870003A20FB685B6B254A9A62FB685B6B244AC3
:10388000DA62FB685B6B234A1A63FB685B6B00229E
:103890005A6307F108037B61FB68586BFB681B6880
:1038A000043319467B691A68FB88FEF7F5F9002393
:1038B0003B61FB681B681B683B61FB681B685B68BE
:1038C0003B613B69FB68002283F83820FB681B687A
:1038D000DA68FB681B6842F48072DA60FB681B6878
:1038E0005A69FB681B6842F001025A61FB681B6859
:1038F0005A69FB681B6842F040025A61002300E0ED
:10390000022318461837BD4680BD00BFB53B0008EE
:103910001D3C0008393C000880B588B000AF7860D5
:103920007B681B681B68FB617B681B68DB68BB618D
:103930007B681B685B697B6100233B610023FB6044
:10394000FB6903F00F033B613B69002B0DD1FB6961
:1039500003F02003002B08D0BB6903F02003002BE9
:1039600003D0786800F0AFFACCE03B69002B00F0A0
:10397000AB807B6903F00103002B05D1BB6903F425
:103980009073002B00F0A080FB6903F00103002B73
:103990000AD0BB6903F48073002B05D07B68DB6B16
:1039A00043F001027B68DA63FB6903F00403002B38
:1039B0000AD07B6903F00103002B05D07B68DB6B29
:1039C00043F002027B68DA63FB6903F00203002B19
:1039D0000AD07B6903F00103002B05D07B68DB6B09
:1039E00043F004027B68DA63FB6903F00803002BF1
:1039F0000AD07B6903F00103002B05D07B68DB6BE9
:103A000043F008027B68DA637B68DB6B002B78D0BD
:103A1000FB6903F02003002B07D0BB6903F02003F0
:103A2000002B02D0786800F04EFA7B681B685B6957
:103A300003F04003002B14BF01230023DBB2FB6023
:103A40007B68DB6B03F00803002B02D1FB68002BC3
:103A500031D0786800F099F97B681B685B6903F0E6
:103A60004003002B23D07B681B685A697B681B6866
:103A700022F040025A617B685B6B002B13D07B689D
:103A80005B6B224A5A637B685B6B1846FEF764F9EE
:103A90000346002B16D07B685B6B5B6B7A68526BBE
:103AA000104698470EE0786800F044F80AE078681D
:103AB00000F040F806E0786800F03CF87B680022EF
:103AC000DA631EE000BF1CE0FB6903F08003002BFB
:103AD00008D0BB6903F08003002B03D0786800F0A6
:103AE00085F90FE0FB6903F04003002B0AD0BB69A6
:103AF00003F04003002B05D0786800F0CCF900BF3C
:103B000000E000BF2037BD4680BD00BFC53D0008B6
:103B100080B483B000AF786000BF0C37BD4680BC76
:103B2000704780B483B000AF786000BF0C37BD46EB
:103B300080BC704780B483B000AF786000BF0C37A2
:103B4000BD4680BC704780B584B000AF78607B68AC
:103B50005B6AFB607B681B681B6803F02003002B1B
:103B600013D1FB680022DA84FB681B685A69FB6882
:103B70001B6822F080025A61FB681B68DA68FB68E8
:103B80001B6842F04002DA6002E0F868FFF7C0FF0D
:103B900000BF1037BD4680BD80B584B000AF7860EF
:103BA0007B685B6AFB60F868FFF7BBFF00BF1037FC
:103BB000BD4680BD80B584B000AF78607B685B6A2D
:103BC000FB607B681B681B6803F02003002B1ED181
:103BD000FB680022DA85FB681B68DA68FB681B68F3
:103BE00022F48072DA60FB681B685A69FB681B6804
:103BF00022F001025A61FB681B685A69FB681B6866
:103C000022F040025A61FB68202283F83A20F868CB
:103C100004F074F800BF1037BD4680BD80B584B095
:103C200000AF78607B685B6AFB60F86804F07EF840
:103C300000BF1037BD4680BD80B584B000AF78604E
:103C40000023FB607B685B6ABB60BB681B685B69C9
:103C500003F08003002B14BF01230023DBB2FB60C1
:103C6000BB6893F83930DBB2212B08D1FB68002BFD
:103C700005D0BB680022DA84B86800F071F8BB6830
:103C80001B685B6903F04003002B14BF0123002372
:103C9000DBB2FB60BB6893F83A30DBB2222B08D171
:103CA000FB68002B05D0BB680022DA85B86800F0FD
:103CB0006CF8BB68DB6B43F01002BB68DA63B86872
:103CC000FFF738FF00BF1037BD4680BD80B584B018
:103CD00000AFF860B9603B601346FB712CE0BB6934
:103CE000B3F1FF3F28D0BB69002B07D0FDF790FE52
:103CF00002463B68D31ABA699A421DD2FB681B6818
:103D0000DA68FB681B6822F4D072DA60FB681B6813
:103D10005A69FB681B6822F001025A61FB68202285
:103D200083F83920FB68202283F83A20FB680022C0
:103D300083F8382003230FE0FB681B681A68BB6810
:103D40001340BA689A420CBF01230023DBB21A4623
:103D5000FB799A42C3D0002318461037BD4680BD78
:103D600080B483B000AF78607B681B68DA687B68DA
:103D70001B6822F0C002DA607B68202283F83920B9
:103D800000BF0C37BD4680BC704780B483B000AF25
:103D900078607B681B68DA687B681B6822F4907225
:103DA000DA607B681B685A697B681B6822F0010235
:103DB0005A617B68202283F83A2000BF0C37BD4649
:103DC00080BC704780B584B000AF78607B685B6A68
:103DD000FB60FB680022DA85FB680022DA84F86861
:103DE000FFF7A8FE00BF1037BD4680BD80B485B088
:103DF00000AF78607B6893F83930DBB2212B44D177
:103E00007B689B68B3F5805F1AD17B681B6AFB6097
:103E1000FB681B881A467B681B68C2F308025A605D
:103E20007B681B69002B05D17B681B6A9A1C7B6829
:103E30001A620EE07B681B6A5A1C7B681A6208E0F3
:103E40007B681B6A591C7A6811621A787B681B6848
:103E50005A607B68DB8C9BB2013B9BB27A68194647
:103E6000D184002B0FD17B681B68DA687B681B68E4
:103E700022F08002DA607B681B68DA687B681B6866
:103E800042F04002DA60002300E0022318461437B3
:103E9000BD4680BC704780B582B000AF78607B685B
:103EA0001B68DA687B681B6822F04002DA607B6876
:103EB000202283F839207868FFF72AFE002318466D
:103EC0000837BD4680BD80B584B000AF78607B68A0
:103ED00093F83A30DBB2222B71D17B689B68B3F543
:103EE000805F23D17B689B6AFB607B681B69002B2A
:103EF0000ED17B681B685B689BB2C3F308039AB260
:103F0000FB681A807B689B6A9A1C7B689A6229E02E
:103F10007B681B685B689BB2DBB29AB2FB681A8055
:103F20007B689B6A5A1C7B689A621BE07B681B69F2
:103F3000002B0AD17B681B6858687B689B6A591CF8
:103F40007A689162C2B21A700CE07B681B685B6889
:103F5000DAB27B689B6A581C7968886202F07F023B
:103F6000D2B21A707B68DB8D9BB2013B9BB27A6840
:103F70001946D185002B20D17B681B68DA687B68E5
:103F80001B6822F02002DA607B681B68DA687B68B5
:103F90001B6822F48072DA607B681B685A697B6850
:103FA0001B6822F001025A617B68202283F83A20C4
:103FB000786803F0A3FE002302E0002300E0022360
:103FC00018461037BD4680BD80B584B000AF78601C
:103FD0007B681B681B6923F440517B68DA687B6847
:103FE0001B680A431A617B689A687B681B691A43DD
:103FF0007B685B691343FB607B681B68DB6823F4A9
:10400000B05323F00C037A681268F9680B43D3604D
:104010007B681B685B6923F440717B689A697B68E5
:104020001B680A435A617B681B68524A93424ED10F
:10403000FEF780FDB860BA6813469B0013449A00EF
:104040001A447B685B689B00B2FBF3F34A4AA2FB0D
:1040500003235B091901BA6813469B0013449A00B5
:104060001A447B685B689B00B2FBF3F2424BA3FBF4
:1040700002035B09642000FB03F3D31A1B013233F4
:104080003D4AA2FB03235B0903F0F0031944BA681D
:1040900013469B0013449A001A447B685B689B009C
:1040A000B2FBF3F2344BA3FB02035B09642000FB79
:1040B00003F3D31A1B0132332F4AA2FB03235B09FC
:1040C00003F00F027B681B680A449A604DE0FEF71C
:1040D0001DFDB860BA6813469B0013449A001A4449
:1040E0007B685B689B00B2FBF3F3234AA2FB0323CC
:1040F0005B091901BA6813469B0013449A001A44DD
:104100007B685B689B00B2FBF3F21B4BA3FB0203D3
:104110005B09642000FB03F3D31A1B013233164AF8
:10412000A2FB03235B0903F0F0031944BA681346AA
:104130009B0013449A001A447B685B689B00B2FBA7
:10414000F3F20D4BA3FB02035B09642000FB03F3B6
:10415000D31A1B013233084AA2FB03235B0903F085
:104160000F027B681B680A449A6000BF1037BD4687
:1041700080BD00BF003801401F85EB5180B485B081
:1041800000AF0346FB800023FB60B7F90630842BA9
:1041900005D0B7F90620FB6813440333FB60FB68C6
:1041A00018461437BD4680BC704780B500AF01F09B
:1041B000E3F80023184680BDF0B587B002AF786001
:1041C00039607B685C687B681D687B681B699EB290
:1041D0007B68B3F908301846FFF7D0FF024607F1B5
:1041E0000C03019300923B6832462946204600F0BA
:1041F00065FF0346012B01D0002300E0FB68184651
:104200001437BD46F0BD80B584B000AF78607B68E0
:10421000FB60FB68002B01D0FB6800E0012318461F
:1042200001F076F8002318461037BD4680BD80B4F3
:1042300083B000AF78607B6803F108027B685A6046
:104240007B684FF0FF329A607B6803F108027B685D
:10425000DA607B6803F108027B681A617B680022E0
:104260001A6000BF0C37BD4680BC704780B483B075
:1042700000AF78607B6800221A6100BF0C37BD4632
:1042800080BC704780B485B000AF786039607B68CF
:104290005B68FB603B68FA685A60FB689A683B6839
:1042A0009A60FB689B683A685A60FB683A689A6053
:1042B0003B687A681A617B681B685A1C7B681A60C5
:1042C00000BF1437BD4680BC704780B485B000AFD6
:1042D000786039603B681B68BB60BB68B3F1FF3F27
:1042E00003D17B681B69FB600CE07B680833FB60D3
:1042F00002E0FB685B68FB60FB685B681B68BA6890
:104300009A42F6D2FB685A683B685A603B685B6821
:104310003A689A603B68FA689A60FB683A685A6043
:104320003B687A681A617B681B685A1C7B681A6054
:1043300000BF1437BD4680BC704780B485B000AF65
:1043400078607B681B69FB607B685B687A68926851
:104350009A607B689B687A6852685A60FB685B6801
:104360007A689A4203D17B689A68FB685A607B68D6
:1043700000221A61FB681B685A1EFB681A60FB6802
:104380001B6818461437BD4680BC704780B584B0A2
:1043900000AF786039607B68FB60FB68002B09D157
:1043A0004FF0500383F31188BFF36F8FBFF34F8F2C
:1043B000BB60FEE701F098FDFB681A68FB68DB6BE9
:1043C000F968096C01FB03F31A44FB685A60FB6847
:1043D00000229A63FB681A68FB689A60FB681A6897
:1043E000FB68DB6B013BF968096C01FB03F31A44C2
:1043F000FB68DA60FB68FF2283F84420FB68FF2239
:1044000083F845203B68002B14D1FB681B69002B07
:104410001AD0FB681033184601F0D8F90346002B78
:1044200012D00D4B4FF080521A60BFF34F8FBFF385
:104430006F8F09E0FB6810331846FFF7F8FEFB6842
:1044400024331846FFF7F3FE01F07CFD01231846E4
:104450001037BD4680BD00BF04ED00E080B58AB0D6
:1044600002AFF860B9601346FB71FB68002B09D1FD
:104470004FF0500383F31188BFF36F8FBFF34F8F5B
:104480003B61FEE7BB68002B02D10023FB6104E027
:10449000FB68BA6802FB03F3FB61FB69483318460B
:1044A00001F018FEB861BB69002B0BD0BB69483323
:1044B0007B61FA79BB69009313467A69B968F86839
:1044C00000F005F8BB6918462037BD4680BD80B5B1
:1044D00084B000AFF860B9607A60FB70BB68002BF5
:1044E00003D1BB69BA691A6002E0BB697A681A60D5
:1044F000BB69FA68DA63BB69BA681A640121B869F2
:10450000FFF744FF00BF1037BD4680BD80B58EB0B9
:1045100000AFF860B9607A603B6000237B63FB68A2
:104520003B633B6B002B09D14FF0500383F31188A1
:10453000BFF36F8FBFF34F8FBB62FEE7BB68002BEB
:1045400003D13B6B1B6C002B01D1012300E0002346
:10455000002B09D14FF0500383F31188BFF36F8F05
:10456000BFF34F8F7B62FEE73B68022B03D13B6BAF
:10457000DB6B012B01D1012300E00023002B09D1CB
:104580004FF0500383F31188BFF36F8FBFF34F8F4A
:104590003B62FEE701F0B6FA0346002B02D17B68CE
:1045A000002B01D1012300E00023002B09D14FF0A3
:1045B000500383F31188BFF36F8FBFF34F8FFB61FD
:1045C000FEE701F091FC3B6B9A6B3B6BDB6B9A4215
:1045D00002D33B68022B29D13A68B968386B00F0E6
:1045E00035FCF8623B6B5B6A002B10D03B6B2433CD
:1045F000184601F0EBF80346002B13D03F4B4FF069
:1046000080521A60BFF34F8FBFF36F8F0AE0FB6ACF
:10461000002B07D0394B4FF080521A60BFF34F8FF9
:10462000BFF36F8F01F08EFC012363E07B68002BEA
:1046300003D101F087FC00235CE07B6B002B06D1EB
:1046400007F11403184601F023F901237B6301F0FD
:1046500079FC00F0D7FE01F047FC3B6B93F8443047
:104660005BB2B3F1FF3F03D13B6B002283F84420E0
:104670003B6B93F845305BB2B3F1FF3F03D13B6B2B
:10468000002283F8452001F05DFC3A1D07F1140378
:104690001146184601F012F90346002B24D1386B5D
:1046A00000F0CCFC0346002B18D03B6B10337A682B
:1046B0001146184601F066F8386B00F057FC00F020
:1046C000AFFE0346002B7FF47CAF0C4B4FF08052C3
:1046D0001A60BFF34F8FBFF36F8F72E7386B00F034
:1046E00045FC00F09DFE6CE7386B00F03FFC00F0ED
:1046F00097FE002318463837BD4680BD04ED00E024
:1047000080B58EB000AFF860B9607A603B60FB683E
:104710003B633B6B002B09D14FF0500383F31188AF
:10472000BFF36F8FBFF34F8F7B62FEE7BB68002B39
:1047300003D13B6B1B6C002B01D1012300E0002354
:10474000002B09D14FF0500383F31188BFF36F8F13
:10475000BFF34F8F3B62FEE73B68022B03D13B6BFD
:10476000DB6B012B01D1012300E00023002B09D1D9
:104770004FF0500383F31188BFF36F8FBFF34F8F58
:10478000FB61FEE701F06AFCEFF311824FF050038A
:1047900083F31188BFF36F8FBFF34F8FBA617B61D3
:1047A000BB69FB623B6B9A6B3B6BDB6B9A4202D340
:1047B0003B68022B2CD13B6B93F8453087F82B30AC
:1047C0003A68B968386B00F041FB97F92B30B3F1C8
:1047D000FF3F12D13B6B5B6A002B16D03B6B24333F
:1047E000184600F0F3FF0346002B0ED07B68002B29
:1047F0000BD07B6801221A6007E097F82B30013359
:10480000DBB25AB23B6B83F8452001237B6301E0A6
:1048100000237B63FB6A3B613B6983F311887B6BFD
:1048200018463837BD4680BD80B58CB000AFF86003
:10483000B9607A600023FB62FB68BB62BB6A002B35
:1048400009D14FF0500383F31188BFF36F8FBFF38B
:104850004F8F3B62FEE7BB68002B03D1BB6A1B6C2A
:10486000002B01D1012300E00023002B09D14FF0E0
:10487000500383F31188BFF36F8FBFF34F8FFB613A
:10488000FEE701F03FF90346002B02D17B68002BC5
:1048900001D1012300E00023002B09D14FF0500388
:1048A00083F31188BFF36F8FBFF34F8FBB61FEE7B8
:1048B00001F01AFBBB6A9B6B7B627B6A002B1FD0EB
:1048C000B968B86A00F02CFB7B6A5A1EBB6A9A630F
:1048D000BB6A1B69002B0FD0BB6A1033184600F06F
:1048E00075FF0346002B07D03C4B4FF080521A60F7
:1048F000BFF34F8FBFF36F8F01F024FB012369E0FB
:104900007B68002B03D101F01DFB002362E0FB6AF2
:10491000002B06D107F11003184600F0B9FF012360
:10492000FB6201F00FFB00F06DFD01F0DDFABB6AE8
:1049300093F844305BB2B3F1FF3F03D1BB6A00226E
:1049400083F84420BB6A93F845305BB2B3F1FF3F74
:1049500003D1BB6A002283F8452001F0F3FA3A1D27
:1049600007F110031146184600F0A8FF0346002B7C
:1049700023D1B86A00F04CFB0346002B17D0BB6A6A
:1049800024337A681146184600F0FCFEB86A00F03D
:10499000EDFA00F045FD0346002B89D10F4B4FF097
:1049A00080521A60BFF34F8FBFF36F8F80E7B86AF2
:1049B00000F0DCFA00F034FD7AE7B86A00F0D6FACD
:1049C00000F02EFDB86A00F023FB0346002B3FF4F5
:1049D0006FAF002318463037BD4680BD04ED00E0C0
:1049E00080B58EB000AFF860B9607A6000237B6359
:1049F000FB683B633B6B002B09D14FF0500383F303
:104A00001188BFF36F8FBFF34F8F7B62FEE7BB68E8
:104A1000002B03D13B6B1B6C002B01D1012300E069
:104A20000023002B09D14FF0500383F31188BFF30B
:104A30006F8FBFF34F8F3B62FEE701F063F80346D1
:104A4000002B02D17B68002B01D1012300E0002361
:104A5000002B09D14FF0500383F31188BFF36F8F00
:104A6000BFF34F8FFB61FEE701F03EFA3B6B9B6BA0
:104A7000FB62FB6A002B21D03B6BDB68BB62B96831
:104A8000386B00F04DFA3B6BBA6ADA603B6B5B6ADD
:104A9000002B0FD03B6B2433184600F097FE0346E3
:104AA000002B07D03C4B4FF080521A60BFF34F8F62
:104AB000BFF36F8F01F046FA012369E07B68002B9A
:104AC00003D101F03FFA002362E07B6B002B06D19B
:104AD00007F11403184600F0DBFE01237B6301F0AD
:104AE00031FA00F08FFC01F0FFF93B6B93F8443092
:104AF0005BB2B3F1FF3F03D13B6B002283F844204C
:104B00003B6B93F845305BB2B3F1FF3F03D13B6B96
:104B1000002283F8452001F015FA3A1D07F114032D
:104B20001146184600F0CAFE0346002B23D1386B0D
:104B300000F06EFA0346002B17D03B6B24337A68E3
:104B40001146184600F01EFE386B00F00FFA00F018
:104B500067FC0346002B87D10F4B4FF080521A6041
:104B6000BFF34F8FBFF36F8F7EE7386B00F0FEF916
:104B700000F056FC78E7386B00F0F8F900F050FCD4
:104B8000386B00F045FA0346002B3FF46DAF00236D
:104B900018463837BD4680BD04ED00E080B58EB0C4
:104BA00000AFF860B9607A60FB683B633B6B002B39
:104BB00009D14FF0500383F31188BFF36F8FBFF318
:104BC0004F8F3B62FEE7BB68002B03D13B6B1B6C36
:104BD000002B01D1012300E00023002B09D14FF06D
:104BE000500383F31188BFF36F8FBFF34F8FFB61C7
:104BF000FEE701F033FAEFF311824FF0500383F335
:104C00001188BFF36F8FBFF34F8FBA617B61BB69B0
:104C1000FB623B6B9B6BBB62BB6A002B2FD03B6B79
:104C200093F8443087F82730B968386B00F078F98A
:104C3000BB6A5A1E3B6B9A6397F92730B3F1FF3F6B
:104C400012D13B6B1B69002B16D03B6B10331846FF
:104C500000F0BCFD0346002B0ED07B68002B0BD070
:104C60007B6801221A6007E097F827300133DBB236
:104C70005AB23B6B83F8442001237B6301E000239D
:104C80007B63FB6A3B613B6983F311887B6B18464E
:104C90003837BD4680BD80B58CB000AF78603960D4
:104CA0007B68BB62BB6A002B09D14FF0500383F3D2
:104CB0001188BFF36F8FBFF34F8FFB61FEE73B6837
:104CC000002B03D1BB6A1B6C002B01D1012300E038
:104CD0000023002B09D14FF0500383F31188BFF359
:104CE0006F8FBFF34F8FBB61FEE7BB6A1B6C002B5E
:104CF00009D14FF0500383F31188BFF36F8FBFF3D7
:104D00004F8F7B61FEE701F0A9F9EFF311824FF0BD
:104D1000500383F31188BFF36F8FBFF34F8F3A6156
:104D2000FB603B697B62BB6A9B6B002B0CD0BB6A50
:104D3000DB683B623968B86A00F0F2F8BB6A3A6A2D
:104D4000DA600123FB6201E00023FB627B6ABB6047
:104D5000BB6883F31188FB6A18463037BD4680BDB7
:104D600080B584B000AF78607B68002B09D14FF02C
:104D7000500383F31188BFF36F8FBFF34F8FBB6076
:104D8000FEE701F0B1F87B689B6BFB6001F0DAF89D
:104D9000FB6818461037BD4680BD80B586B000AFB1
:104DA00078607B687B617B69002B09D14FF05003F1
:104DB00083F31188BFF36F8FBFF34F8FFB60FEE764
:104DC00001F092F87B69DA6B7B699B6BD31A3B61CC
:104DD00001F0B8F83B6918461837BD4680BD80B46D
:104DE00085B000AF78607B68002B09D14FF050038D
:104DF00083F31188BFF36F8FBFF34F8FBB60FEE764
:104E00007B689B6BFB60FB6818461437BD4680BC13
:104E1000704780B584B000AF78607B68FB60FB684A
:104E2000002B09D14FF0500383F31188BFF36F8F2C
:104E3000BFF34F8FBB60FEE7F86800F017F9F86822
:104E400001F00AFA00BF1037BD4680BD80B586B0BC
:104E500000AFF860B9607A6000237B61FB689B6BF0
:104E60003B61FB681B6C002B0DD1FB681B68002BA2
:104E70004DD1FB685B68184600F062FE7861FB6804
:104E800000225A6043E07B68002B19D1FB689868C8
:104E9000FB681B6C1A46B96804F043FDFB689A680E
:104EA000FB681B6C1A44FB689A60FB689A68FB6895
:104EB0005B689A422BD3FB681A68FB689A6026E00D
:104EC000FB68D868FB681B6C1A46B96804F029FDBA
:104ED000FB68DA68FB681B6C5B421A44FB68DA60AB
:104EE000FB68DA68FB681B689A4207D2FB685A685D
:104EF000FB681B6C5B421A44FB68DA607B68022B20
:104F000005D13B69002B02D03B69013B3B613B690A
:104F10005A1CFB689A637B6918461837BD4680BDEA
:104F200080B582B000AF786039607B681B6C002B65
:104F300018D07B68DA687B681B6C1A447B68DA607F
:104F40007B68DA687B685B689A4203D37B681A687F
:104F50007B68DA607B68D9687B681B6C1A463868A6
:104F600004F0DFFC00BF0837BD4680BD80B584B0CB
:104F700000AF786000F0B8FF7B6893F84530FB73B2
:104F800011E07B685B6A002B12D07B6824331846E3
:104F900000F01CFC0346002B01D000F0EFFCFB7B73
:104FA000013BDBB2FB7397F90F30002BE9DC00E02B
:104FB00000BF7B68FF2283F8452000F0C3FF00F0AC
:104FC00093FF7B6893F84430BB7311E07B681B69E7
:104FD000002B12D07B681033184600F0F7FB034615
:104FE000002B01D000F0CAFCBB7B013BDBB2BB73E2
:104FF00097F90E30002BE9DC00E000BF7B68FF2250
:1050000083F8442000F09EFF00BF1037BD4680BDEE
:1050100080B584B000AF786000F066FF7B689B6B62
:10502000002B02D10123FB6001E00023FB6000F0B4
:1050300089FFFB6818461037BD4680BD80B584B037
:1050400000AF786000F050FF7B689A6B7B68DB6B89
:105050009A4202D10123FB6001E00023FB6000F0D3
:1050600071FFFB6818461037BD4680BD80B485B01F
:1050700000AF78600023FB6016E00F4AFB68DB009E
:1050800013445B687A689A420BD10B4AFB68002193
:1050900042F83310084AFB68DB00134400225A60D0
:1050A00005E0FB680133FB60FB68072BE5D900BF17
:1050B0001437BD4680BC7047D010002080B58CB03E
:1050C00004AFF860B9603B601346FB80FB889B002F
:1050D000184600F0FFFF78617B69002B0ED054204A
:1050E00000F0F8FFF861FB69002B03D0FB697A69D7
:1050F0001A6305E0786901F0AFF801E00023FB6175
:10510000FB69002B13D0FA8800230393FB690293F9
:10511000FB6A0193BB6A00933B68B968F86800F0CA
:105120000EF8F86900F08AF80123BB6102E04FF045
:10513000FF33BB61BB6918462037BD4680BD80B5D3
:1051400088B000AFF860B9607A603B603B6B1A6B67
:105150007B6803F18043013B9B001344BB61BB6947
:1051600023F00703BB61BB6903F00703002B09D0E1
:105170004FF0500383F31188BFF36F8FBFF34F8F4E
:105180007B61FEE70023FB6112E0BA68FB69134410
:1051900019783A6BFB69134434330A461A70BA68BB
:1051A000FB6913441B78002B06D0FB690133FB61BC
:1051B000FB690F2BE9D900E000BF3B6B002283F8AD
:1051C0004320BB6A062B01D90623BB623B6BBA6A3C
:1051D000DA623B6BBA6A5A643B6B00229A643B6B9F
:1051E00004331846FFF742F83B6B18331846FFF7B5
:1051F0003DF83B6B3A6B1A61BB6AC3F107023B6B2C
:105200009A613B6B3A6B5A623B6B0022DA643B6BF0
:10521000002283F850203A68F968B86900F07AFDF6
:1052200002463B6B1A60FB6A002B02D0FB6A3A6BAA
:105230001A6000BF2037BD4680BD000080B582B037
:1052400000AF786000F050FE2A4B1B680133294AFA
:105250001360294B1B68002B09D1274A7B68136018
:10526000244B1B68012B10D100F0ACFB0DE0234B4D
:105270001B68002B09D1204B1B68DA6A7B68DB6A4C
:105280009A4202D81C4A7B6813601D4B1B6801338D
:105290001B4A13607B68DB6A01229A40194B1B682A
:1052A0001343184A13607B68DA6A13469B00134461
:1052B0009B00154A1A447B68043319461046FEF7D2
:1052C000E1FF00F03FFE0D4B1B68002B0ED00A4B98
:1052D0001B68DA6A7B68DB6A9A4207D20B4B4FF095
:1052E00080521A60BFF34F8FBFF36F8F00BF083734
:1052F000BD4680BD040300200402002010030020EE
:10530000200300200C0300200802002004ED00E030
:1053100080B584B000AF78600023FB607B68002B11
:1053200016D0134B1B68002B09D04FF0500383F3AA
:105330001188BFF36F8FBFF34F8FBB60FEE700F0A4
:1053400061F80021786800F07FFC00F069F8F860EF
:10535000FB68002B07D1074B4FF080521A60BFF358
:105360004F8FBFF36F8F00BF1037BD4680BD00BFAA
:105370002C03002004ED00E080B586B002AF1B4B8B
:105380000193002300930023802219491948FFF755
:1053900095FEF860FB68012B15D14FF0500383F3A5
:1053A0001188BFF36F8FBFF34F8FBB60124B4FF06D
:1053B000FF321A60114B01221A60114B00221A6051
:1053C00000F022FD0DE0FB68B3F1FF3F09D14FF083
:1053D000500383F31188BFF36F8FBFF34F8F7B6050
:1053E000FEE700BF1037BD4680BD00BF2803002088
:1053F000CCB40008955900082403002010030020B5
:105400000803002080B400AF044B1B680133034A3B
:10541000136000BFBD4680BC704700BF2C03002056
:1054200080B584B000AF0023FB600023BB60414B1C
:105430001B68002B09D14FF0500383F31188BFF391
:105440006F8FBFF34F8F3B60FEE700F04DFD394B90
:105450001B68013B374A1360364B1B68002B61D138
:10546000354B1B68002B5DD02EE0344BDB68DB68CE
:10547000FB60FB6818331846FEF75FFFFB680433D8
:105480001846FEF75AFFFB68DB6A01229A402C4B54
:105490001B6813432A4A1360FB68DA6A13469B00B1
:1054A00013449B00274A1A44FB68043319461046EC
:1054B000FEF7E8FEFB68DA6A234B1B68DB6A9A4258
:1054C00002D3224B01221A601C4B1B68002BCCD14B
:1054D000FB68002B01D000F0F1FA1D4B1B687B60CC
:1054E0007B68002B10D000F037F80346002B02D069
:1054F000164B01221A607B68013B7B607B68002BA6
:10550000F1D1134B00221A60104B1B68002B09D0FD
:105510000123BB600F4B4FF080521A60BFF34F8FD7
:10552000BFF36F8F00F00EFDBB6818461037BD4605
:1055300080BD00BF2C03002004030020C402002013
:105540000C030020080200200402002018030020A1
:105550001403002004ED00E080B586B000AF002306
:105560007B61504B1B68002B40F08C804E4B1B68BE
:1055700001333B614C4A3B6913603B69002B1FD1EF
:105580004A4B1B681B68002B09D04FF0500383F374
:105590001188BFF36F8FBFF34F8F3B60FEE7434B24
:1055A0001B68FB60424B1B68404A1360404AFB6823
:1055B0001360404B1B6801333E4A136000F07EFAD3
:1055C0003D4B1B683A699A424DD3384B1B681B68A8
:1055D000002B01D1012300E00023002B04D0364B27
:1055E0004FF0FF321A603EE0304B1B68DB68DB682F
:1055F000BB60BB685B687B603A697B689A4203D298
:105600002D4A7B6813602EE0BB6804331846FEF712
:1056100094FEBB689B6A002B04D0BB681833184605
:10562000FEF78BFEBB68DB6A01229A40234B1B68A6
:105630001343224A1360BB68DA6A13469B00134483
:105640009B001F4A1A44BB68043319461046FEF7F4
:1056500019FEBB68DA6A1B4B1B68DB6A9A42B4D33B
:1056600001237B61B1E7174B1B68DA6A14491346C3
:105670009B0013449B000B441B68012B07D901239B
:105680007B6104E0104B1B6801330F4A13600F4B22
:105690001B68002B01D001237B617B6918461837FA
:1056A000BD4680BD2C03002008030020BC02002062
:1056B000C00200201C030020240300200C03002053
:1056C0000802002004020020140300201803002018
:1056D00080B487B000AF264B1B68002B03D0254B4E
:1056E00001221A603EE0234B00221A60224B1B6805
:1056F000FB60FB68B3FA83F3FB72FB7AC3F11F0311
:105700007B611E497A6913469B0013449B000B443E
:105710001B68002B09D14FF0500383F31188BFF3AE
:105720006F8FBFF34F8F7B60FEE77A6913469B0054
:1057300013449B00114A13443B613B695B685A6800
:105740003B695A603B695A683B6908339A4204D105
:105750003B695B685A683B695A603B695B68DB6818
:10576000074A136000BF1C37BD4680BC704700BFAE
:105770002C030020180300200C0300200802002046
:105780000402002080B584B000AF786039607B6887
:10579000002B09D14FF0500383F31188BFF36F8FB3
:1057A000BFF34F8FFB60FEE7074B1B6818331946AA
:1057B0007868FEF78AFD0121386800F045FA00BFDD
:1057C0001037BD4680BD00BF0402002080B586B002
:1057D00000AF78607B68DB68DB683B613B69002B6E
:1057E00009D14FF0500383F31188BFF36F8FBFF3DC
:1057F0004F8FFB60FEE73B6918331846FEF79DFDAF
:105800001D4B1B68002B1CD13B6904331846FEF767
:1058100094FD3B69DB6A01229A40184B1B681343D5
:10582000164A13603B69DA6A13469B0013449B00D7
:10583000134A1A443B69043319461046FEF722FD09
:1058400005E03B69183319460E48FEF71BFD3B691E
:10585000DA6A0D4B1B68DB6A9A4205D901237B612A
:105860000A4B01221A6001E000237B617B69184624
:105870001837BD4680BD00BF2C0300200C0300205C
:1058800008020020C40200200402002018030020A7
:1058900080B483B000AF7860064B1A687B681A60EA
:1058A000054B1A687B685A6000BF0C37BD4680BC48
:1058B000704700BF1C0300200803002080B588B09B
:1058C00000AF786039607B68002B09D14FF050033E
:1058D00083F31188BFF36F8FBFF34F8F3B61FEE7F8
:1058E0003B68002B09D14FF0500383F31188BFF3BD
:1058F0006F8FBFF34F8FFB60FEE700F0F5FA1D4B93
:105900001B68BB617B685B68BA69D31A7B613B68C3
:105910001B68B3F1FF3F02D10023FB6123E07B68EA
:105920001A68154B1B689A4207D07B685B68BA6996
:105930009A4202D30123FB6115E03B681B687A6938
:105940009A420BD23B681A687B69D21A3B681A608C
:105950007868FFF79DFF0023FB6104E03B680022AD
:105960001A600123FB6100F0EDFAFB69184620374D
:10597000BD4680BD080300201C03002080B400AF9A
:10598000034B01221A6000BFBD4680BC704700BFB8
:105990001803002080B582B000AF786000F052F8A4
:1059A000064B1B68012BF9D9054B4FF080521A604A
:1059B000BFF34F8FBFF36F8FF0E700BF08020020E7
:1059C00004ED00E080B582B000AF00237B600CE006
:1059D0007A6813469B0013449B00124A13441846EE
:1059E000FEF725FC7B6801337B607B68062BEFD9D3
:1059F0000D48FEF71CFC0D48FEF719FC0C48FEF79D
:105A000016FC0C48FEF713FC0B48FEF710FC0B4B82
:105A1000054A1A600A4B054A1A6000BF0837BD469E
:105A200080BD00BF0802002094020020A8020020D0
:105A3000C4020020D8020020F0020020BC02002096
:105A4000C002002080B582B000AF19E000F04CFA2F
:105A50000F4BDB68DB687B607B6804331846FEF71E
:105A60006CFC0C4B1B68013B0A4A13600A4B1B6819
:105A7000013B094A136000F065FA786800F00EF8FF
:105A8000054B1B68002BE1D100BF0837BD4680BD28
:105A9000D802002004030020EC02002080B582B070
:105AA00000AF78607B681B6B184600F0D5FB786808
:105AB00000F0D2FB00BF0837BD4680BD80B483B084
:105AC00000AF0E4B1B681B68002B01D1012300E0C7
:105AD0000023002B04D00A4B4FF0FF321A6008E07D
